{"abi":[{"type":"function","name":"abc","inputs":[],"outputs":[{"name":"name","type":"string","internalType":"string"},{"name":"age","type":"uint256","internalType":"uint256"}],"stateMutability":"view"},{"type":"function","name":"addPerson","inputs":[{"name":"_name","type":"string","internalType":"string"},{"name":"_age","type":"uint256","internalType":"uint256"}],"outputs":[],"stateMutability":"nonpayable"},{"type":"function","name":"nameToAge","inputs":[{"name":"","type":"string","internalType":"string"}],"outputs":[{"name":"","type":"uint256","internalType":"uint256"}],"stateMutability":"view"},{"type":"function","name":"persons","inputs":[{"name":"","type":"uint256","internalType":"uint256"}],"outputs":[{"name":"name","type":"string","internalType":"string"},{"name":"age","type":"uint256","internalType":"uint256"}],"stateMutability":"view"},{"type":"function","name":"retrieve","inputs":[],"outputs":[{"name":"","type":"uint256","internalType":"uint256"}],"stateMutability":"view"},{"type":"function","name":"store","inputs":[{"name":"_number","type":"uint256","internalType":"uint256"}],"outputs":[],"stateMutability":"nonpayable"}],"bytecode":{"object":"0x610100604052600660c090815265496e76316e6360d01b60e0526080818152601460a05290600190819061003390826100f3565b5060208201518160010155505034801561004c57600080fd5b506101b2565b634e487b7160e01b600052604160045260246000fd5b600181811c9082168061007c57607f821691505b60208210810361009c57634e487b7160e01b600052602260045260246000fd5b50919050565b601f8211156100ee576000816000526020600020601f850160051c810160208610156100cb5750805b601f850160051c820191505b818110156100ea578281556001016100d7565b5050505b505050565b81516001600160401b0381111561010c5761010c610052565b6101208161011a8454610068565b846100a2565b602080601f831160018114610155576000841561013d5750858301515b600019600386901b1c1916600185901b1785556100ea565b600085815260208120601f198616915b8281101561018457888601518255948401946001909101908401610165565b50858210156101a25787850151600019600388901b60f8161c191681555b5050505050600190811b01905550565b61058c806101c16000396000f3fe608060405234801561001057600080fd5b50600436106100625760003560e01c80632e64cec1146100675780636057361d1461007e5780636f760f411461009357806390c3ee4d146100a657806392277933146100d1578063a2f9eac6146100e7575b600080fd5b6000545b6040519081526020015b60405180910390f35b61009161008c366004610252565b600055565b005b6100916100a136600461030e565b6100fa565b61006b6100b4366004610353565b805160208183018101805160048252928201919093012091525481565b6100d9610187565b6040516100759291906103b4565b6100d96100f5366004610252565b61021f565b604080518082019091528281526020810182905260038054600181018255600091909152815182916002027fc2575a0e9e593c00f959f8c92f12db2869c3395a3b0502d05e2516446f71f85b01908190610154908261047a565b5060208201518160010155505081600484604051610172919061053a565b90815260405190819003602001902055505050565b600180548190610196906103ef565b80601f01602080910402602001604051908101604052809291908181526020018280546101c2906103ef565b801561020f5780601f106101e45761010080835404028352916020019161020f565b820191906000526020600020905b8154815290600101906020018083116101f257829003601f168201915b5050505050908060010154905082565b6003818154811061022f57600080fd5b9060005260206000209060020201600091509050806000018054610196906103ef565b60006020828403121561026457600080fd5b5035919050565b634e487b7160e01b600052604160045260246000fd5b600082601f83011261029257600080fd5b813567ffffffffffffffff808211156102ad576102ad61026b565b604051601f8301601f19908116603f011681019082821181831017156102d5576102d561026b565b816040528381528660208588010111156102ee57600080fd5b836020870160208301376000602085830101528094505050505092915050565b6000806040838503121561032157600080fd5b823567ffffffffffffffff81111561033857600080fd5b61034485828601610281565b95602094909401359450505050565b60006020828403121561036557600080fd5b813567ffffffffffffffff81111561037c57600080fd5b61038884828501610281565b949350505050565b60005b838110156103ab578181015183820152602001610393565b50506000910152565b60408152600083518060408401526103d3816060850160208801610390565b602083019390935250601f91909101601f191601606001919050565b600181811c9082168061040357607f821691505b60208210810361042357634e487b7160e01b600052602260045260246000fd5b50919050565b601f821115610475576000816000526020600020601f850160051c810160208610156104525750805b601f850160051c820191505b818110156104715782815560010161045e565b5050505b505050565b815167ffffffffffffffff8111156104945761049461026b565b6104a8816104a284546103ef565b84610429565b602080601f8311600181146104dd57600084156104c55750858301515b600019600386901b1c1916600185901b178555610471565b600085815260208120601f198616915b8281101561050c578886015182559484019460019091019084016104ed565b508582101561052a5787850151600019600388901b60f8161c191681555b5050505050600190811b01905550565b6000825161054c818460208701610390565b919091019291505056fea26469706673582212204e90b4a6743e619b429b487a921f322d834a9718e71e3376e3c9fb776cd6085764736f6c63430008190033","linkReferences":{}},"methodIdentifiers":{"abc()":"92277933","addPerson(string,uint256)":"6f760f41","nameToAge(string)":"90c3ee4d","persons(uint256)":"a2f9eac6","retrieve()":"2e64cec1","store(uint256)":"6057361d"},"id":20}